:1000000018C032C031C030C0F6C12EC02DC02CC0C7
:100010002BC072C129C028C027C026C025C024C05B
:1000200028C022C021C03B08351D0E1F3F093F1FBD
:10003000040011241FBECFE5D4E0DEBFCDBF10E029
:10004000A0E6B0E0E4E6F9E002C005900D92A23629
:10005000B107D9F720E0A2E6B0E001C01D92A637B3
:10006000B207E1F703D37CC4CBCF88B18A6088B9EB
:100070000895C0E0D0E0E199FECFFE01E459FF4FC2
:100080006081CE01805090405AD42196C330D10572
:1000900091F7FFCF84E083BF83E882BF83E085BD13
:1000A00086E084BD81E489BF089587B38F6387BBF1
:1000B00088B3807C88BB84B3887F84BB85B387602A
:1000C00085BBA598AD9881B38C6181BB82B3837EDB
:1000D00082BB889A909A899A91988D9A959808955A
:1000E0009FEF90937300909374009098623021F486
:1000F000823030F48F5F04C0633011F4811181507D
:10010000809372000895262F882301F1909A643617
:1001100080F03AE0862F632FCAD390937200C7D342
:1001200090937300822F64E6C2D3809374009098FA
:100130000895409372006A3030F0862F6AE0B7D39A
:10014000909373000EC0609373000AC090988FEF75
:10015000860F893048F4609372008AE080937300C0
:100160008FEF8093740008953AE0862F632F9FD31A
:100170009093720080937300309374000895282F39
:10018000633069F018F4623031F014C0643159F012
:100190006E3169F00FC08D377CF42F5F0BC08A3C45
:1001A000FCF0215007C083373CF4265F03C0843D38
:1001B000BCF02A50243664F03AE0822F632F83D3B8
:1001C00090937200632F7FD39093730081E02EC0D1
:1001D0002A3034F0822F6AE076D39093720012C0F6
:1001E00027FD06C0209372008FEF809373001EC01E
:1001F000273F64F0422F552741950CF450954093CA
:1002000072008AE0809373008FEF10C0293C84F065
:10021000422F552741950CF45095CA016AE070E0D1
:1002200073D380937200609373008AE080937400AC
:10023000822F08958F3F21F488B3807C88BB12C041
:100240008B3050F428B3E82FF0E0EA5DFF4F949133
:10025000207C9F73922B98BB9BEF980F923010F0ED
:100260008A3011F495980895959A08950F93E62F82
:10027000062E000CFF0BF7FF03C0F195E195F10985
:100280009E2FE42F042E000CFF0BF7FF03C0F19507
:10029000E195F1098130C1F018F0823069F027C092
:1002A00067FD08C0921303C0002331F022C09217EB
:1002B00018F41FC02917E8F047FF16C0E21310C05A
:1002C00081E0011117C013C0161634F49217C1F360
:1002D00081E0921778F00BC081E0291758F007C031
:1002E00081E0E21738F003C081E02E1718F080E0BB
:1002F00001C081E00F9108951F920F920FB60F92E7
:1003000011242F933F934F935F936F937F938F931A
:100310009F93AF93BF93CF93EF93FF9383E882BFF5
:10032000809175008130B1F580916B009FEF980F3F
:100330009C3700F592B321E030E00090610002C0EC
:10034000220F331F0A94E2F7822F8C71937E892B40
:1003500082BBE0916100C1E0CE0FC0936100F0E08C
:10036000E059FF4F808166DFC53051F482E0809311
:10037000610006C08E578C3718F482B3837E82BB2F
:1003800080916B0090E001966AEF70E0BDD280939F
:100390006B001FC092B321E030E00090610002C00A
:1003A000220F331F0A94E2F7822F8C71937E892BE0
:1003B00082BBE0916100C1E0CE0FC0936100F0E02C
:1003C000E059FF4F808136DFC53019F482E0809319
:1003D0006100FF91EF91CF91BF91AF919F918F916C
:1003E0007F916F915F914F913F912F910F900FBE31
:1003F0000F901F9018951F920F920FB60F92112415
:100400002F933F938F939F9386E084BD83B3909106
:100410006600911117C090916000282F2927382F6E
:10042000347022FF0AC0311108C0209171002F5F83
:100430002093710020E5209366009B7F932B90937F
:10044000600003C0915090936600909167009111F5
:1004500015C090916000382F3927282F227031FF66
:1004600008C0211106C030E53093670031E03093B9
:1004700064009D7F922B9093600003C091509093F5
:10048000670020916400213039F590916900911145
:1004900020C081FD0DC090916F009F5F90936F0011
:1004A00090916F00943611F42093620091E012C095
:1004B00090916200913029F410926F0010926200C6
:1004C00003C09AEF90936F0010926900109264003D
:1004D00003C091509093690090916800911115C0EC
:1004E00090916000382F3927282F217030FF08C0E5
:1004F000211106C030E53093680031E0309365008B
:100500009E7F922B9093600003C09150909368005F
:1005100020916500213049F590916A00911122C027
:1005200080FD0FC0809170008F5F8093700080917C
:100530007000843611F42093630081E080936A0098
:1005400014C080916300813029F4109270001092E1
:10055000630003C08AEF8093700010926A001092CB
:10056000650003C0915090936A009F918F913F91D5
:100570002F910F900FBE0F901F901895A59A8FEB9B
:1005800093E00197F1F700C00000A59890EA9A95D2
:10059000F1F783B3E7E4F3E03197F1F700C000002F
:1005A00085FB882780F991E089270895A59A92E034
:1005B0009A95F1F700C08111A59880EA8A95F1F724
:1005C000A5980895A59A82E08A95F1F700C0A598AC
:1005D00098E29A95F1F783B398E79A95F1F78072CC
:1005E0000895CF93DF93D82FC8E08D2F8170DEDF81
:1005F000D69582E08A95F1F700C0C150B1F7DF913E
:10060000CF910895CF93DF93D8E0C0E0C695DADFAD
:100610008111C06882E08A95F1F700C0D150B1F72E
:100620008C2FDF91CF910895A9DF882341F08CECC6
:10063000D8DF84E4D6DFC6DF8823E9F381E00895BC
:10064000CF93DF939BDF882361F08CECCADF8EEBC6
:10065000C8DFD8DFC82FD0E0D5DF9E01382BC90115
:1006600002C08FEF9FEFDF91CF910895C0E0D0E0FF
:10067000E199FECFCE018050904059D1FE01E4595E
:10068000FF4F80832196C330D10591F740906C00D5
:1006900050906D0010916E00133008F010E005DDF1
:1006A000F9DCE3DC7894C0E094E6C92ED12C2AE092
:1006B000A22EB12C38EE832E33E0932E33243394C4
:1006C00080916F00843621F410926F0064E109C0BC
:1006D00080916F008A3F21F410926F0062E001C0A8
:1006E00060E080917000843621F4109270006EE119
:1006F00007C0809170008A3F19F41092700063E087
:1007000080917100823071F040F48130D1F4109208
:100710007500812FE5DC182FC2C0833049F084308A
:1007200069F00FC0123031F0842D29DD482E09C048
:10073000111104C0852D23DD582E03C010927100C5
:1007400002C0C111ACC070DF811109C010927200EB
:100750001092730010927400909AC0E0B1CF70DFD5
:100760003C01EC0197FF04C0CC27DD27C81BD90B47
:1007700084E0D595C7958A95E1F7C3018F709927D5
:1007800041E752E0849F9001859F300D949F300D8A
:100790001124C901B601A4D0CB01B501A1D006979F
:1007A00010F028513C4FC901B4019AD07B01062FAB
:1007B0002C2F452D642D812F59DD8093750011302C
:1007C000B1F120F0123009F443C05FC0CE01992787
:1007D000242D042C000C330B141454F4281739075F
:1007E0006CF08217930769F4E114F10451F006C02C
:1007F000319521953109821793071CF430927500C9
:1008000002C010927500252D052C000C330B151419
:1008100024F482179307BCF533C031952195310933
:10082000281739076CF18217930769F526C09E01D6
:100830003327842D042C000C990B1414C4F09195CB
:100840008195910928173907F4F4109375001DC09C
:100850009E013327852D052C000C990B151424F4CB
:100860002817390784F40CC0919581959109821756
:10087000930734F02817390731F4E114F10419F023
:100880003092750002C01092750081E016141704B2
:100890000CF080E04E2D6C2F36DCC0E001C0C1E0D2
:1008A00040926C0050926D0010936E0009CF991B1E
:1008B00079E004C0991F961708F0961B881F7A9557
:1008C000C9F78095089587FB082E062687FD819538
:1008D00067FD6195ECDF0EF4919507FC8195089515
:1008E000AA1BBB1B51E107C0AA1FBB1FA617B70756
:1008F00010F0A61BB70B881F991F5A95A9F7809572
:100900009095BC01CD01089597FB072E16F4009435
:1009100006D077FD08D0E4DF07FC05D03EF49095C3
:1009200081959F4F0895709561957F4F0895E19946
:10093000FECF9FBB8EBBE09A99278DB30895262FDB
:10094000E199FECF9FBB8EBBE09A01970DB20216D4
:1009500031F02DBB0FB6F894E29AE19A0FBE0895DC
:04096000F894FFCF39
:02096400FF0290
:00000001FF
